:0C0000000C942A000C9400000C940000EA
:10000C000C9400000C9400000C9400000C94000064
:10001C000C9400000C94C5000C9484000C9400000B
:10002C000C9400000C9400000C9400000C94000044
:10003C000C9400000C9400000C9400000C94000034
:10004C000C9400000C940000F894EE27ECBBF1E04B
:10005C00FBBFEBBFE5BF8DE0A2E0BB27ED938A951C
:10006C00E9F780E094E0A0E6ED930197E9F7EFE57E
:10007C00EDBFE4E0EEBFC0E6D1E00C941701BA93FB
:10008C00AA93E881F981309711F4EFE335C0E130A0
:10009C00A0E0FA0711F4E6E02FC0E230A0E0FA0786
:1000AC0011F4EBE529C0E330A0E0FA0711F4EFE41A
:1000BC0023C0E430A0E0FA0711F4E6E61DC0E530F9
:1000CC00A0E0FA0711F4EDE617C0E630A0E0FA075D
:1000DC0011F4EDE711C0E730A0E0FA0711F4E7E006
:1000EC000BC0E830A0E0FA0711F4EFE705C0E930E7
:1000FC00A0E0FA0709F4EFE6229608950A921A9204
:10010C00FA926A937A938A939A93AA93BA93EA93FC
:10011C00FA93EFB7EA93EFEFE2BFA0916001B091D1
:10012C00610114972CF0E0E0E0936001E093610131
:10013C00E0916001A1E00E943801E095EF70E5BB11
:10014C00E0916001F0916101EE59FE4FA081B0E0A9
:10015C0096DFE2BBA0E6B1E0ED91FD913196FE9306
:10016C00EE93E991EFBFF991E991B991A991999128
:10017C00899179916991F9901990099018950A9241
:10018C001A926A937A939A93AA93BA93EA93FA93EC
:10019C00EFB7EA930E9474012091660130916701D8
:1001AC00EEEEF5E8FDBDECBDA6E6B1E0ED91FD91FE
:1001BC003196FE93EE93A0916601B0916701A03148
:1001CC00E7E2BE0728F0E0E0E0936601E093670108
:1001DC0000E010E00430E0E01E07A4F4F801EE5952
:1001EC00FE4FBF01D901EAE0F0E00E945801DB01AB
:1001FC00EC93D901EAE0F0E00E9453019F010F5FFC
:10020C001F4FE8CF0E9479012496E991EFBFF99135
:10021C00E991B991A9919991799169911990099064
:10022C001895EFE0E4BBEFEFE1BBEEEFE5BBE5E0EB
:10023C00E3BFEFEFE2BFE0E0EFBDE4E0EEBDEEEEDA
:10024C00F5E8FDBDECBDE5E0E9BF7894E1E0F0E058
:10025C00E0936601F0936701FFCFFFCFF195E19535
:10026C00F0400895EE230E2EEA2F19F0EE0F0A94AB
:10027C00E9F708950024112490E1AA0FBB1F001C7C
:10028C00111C0E1A1F0A18F40E0E1F1E01C0A160BD
:10029C009A9599F7FD01D001089512D0EBDF0EF479
:1002AC00DDDF0895E894B7FF04C0A095B0951196D2
:1002BC006894F7FDD3DFDEDFFD010EF4CFDF089588
:1002CC00E894F7FF02C0CADF6894B7FF06C0A09598
:1002DC00B095119600F8039400FA08953A932A9376
:1002EC001A930A9308953B812A81198108810895F4
:00000001FF
