:100000000C9449000C9400000C9400000C94000027
:100010000C9400000C948C000C9400000C940000D4
:100020000C9476000C9400000C9400000C940000DA
:100030000C9400000C9400000C9400000C94000040
:100040000C9400000C9400000C9400000C94000030
:100050000C940000706572696F64203D2000686533
:100060006C6C6F20776F726C640080C001002D4E45
:10007000414E00494E4600000A00600154000C0049
:100080006A015E00020078016A0001007C016C00D8
:100090000000F894EE27ECBBF1E0FBBFEBBFE5BF3F
:1000A0008DE0A2E0BB27ED938A95E9F780E094E02C
:1000B000A0E6ED930197E9F7E8E7F0E085919591E7
:1000C000009761F0A591B59105901590BF01F001E1
:1000D00005900D920197E1F7FB01F0CFEFE5EDBF41
:1000E000E4E0EEBFC0E6D1E00C94EB00AA93BA9333
:1000F000EA93FA93EFB7EA930E940F02A6E7B1E002
:10010000ED91FD913196FE93EE93E991EFBFF99158
:10011000E991B991A99118950A921A92FA926A9363
:100120007A938A939A93AA93BA93EA93FA93EFB73E
:10013000EA932E971A930A93E7B5FE2FE0E0DF01CA
:10014000E6B5F0E0EA0FFB1F8F01662777270E94D4
:100150008302DF01CB01E0E0F8EF69EF75E40E9474
:10016000B1020E944A02DF01CB01E0917601F091D9
:100170007701662777270E94F602EA83FB836C8368
:100180007D83E0E0E0937601E09377010E940F0227
:10019000EA81FB81FA93EA93DE0118960E94E1015D
:1001A0000E945F01A0E6B1E00E948C01DE0116967C
:1001B0000E948C01198108816096E991EFBFF99145
:1001C000E991B991A9919991899179916991F99060
:1001D000199009901895EFEFEABBE0EFE4BBAF98F8
:1001E000E3E0E3BFE3E8E2BFE0E0EFBDE1E8EEBD5E
:1001F0000E940F02E0E0E7BDE6BDE5E2E9BFA0E155
:100200000E94AE01AAE6B1E00E948C017894E9B7A1
:10021000E462E9BFE9B7EE7FE9BFF9CFFFCFFFE0C6
:10022000FA95F1F70895AAB3AF70AABBD99AD898F6
:10023000F6DFDA9AF4DFA9B3DA98F1DFDA9AEFDFC2
:10024000DA98A7FDF5CF0895A07FAB2BABBBDA9A68
:100250000E940F01DA980E940F010895AA93D9987D
:10026000AAB3A76FAABBBBB3BF70A881EDDFA881FB
:10027000A295EADFD99A0C94DF01DA9A0E940F0165
:10028000E9B3DA980E940F01E07F08950E940F0100
:10029000F4DFAE2FF2DFD998E295EA2B0895AA9306
:1002A0000E941301E881F0E0E858FE4FE081A98147
:1002B000AE0F0E942E0159804880229608950E9418
:1002C0001301A2E00E942E010E941301ACE00E94E3
:1002D0002E010E941301A1E00E942E01E0E04E2EAB
:1002E0005E2E0895AA93EF93FF93A8816894AA3095
:1002F00019F0E894571430F04394E0E0EA93A42D09
:10030000CEDF36F053948FDFD89AA8810E942E0159
:10031000FF91EF910C94DF01BA93AA931A93A981EC
:10032000BA81ED91A983BA831E2FE03019F0A12F75
:10033000D9DFF5CF188123960895AA27BB271197F7
:10034000F1F70895AA93D998AAB3A76FAABBBBB334
:10035000BF70A8810E942401D99A31C0AA93DA986B
:10036000D8987880E881E058E0937A01E881E054F9
:10037000E0937B010E9414020E9414020E94140266
:10038000DCDFA0E2DFDFD9DFA8E20E941902A4E0EF
:100390000E941902A5E80E941902AAB3AF70AABB75
:1003A000D99A0E944601E53011F0E0E008C00E94B1
:1003B0001301A6E00E942E010E945F01E1E0219658
:1003C0000895BA93AA93A991B991E991F9913096B8
:1003D0002AF4E095F09531966DE26D93E89480E112
:1003E00097E20DD088EE93E00AD084E6992707D0F3
:1003F0008AE005D06E2F10D066276C93089566278B
:10040000E817F90720F06395E81BF90BC9F7662395
:1004100011F416F008956894605D6D930895E0EC12
:10042000F0EEFDBDECBD08950E949D01A0E30C948B
:10043000A2010E942E010C949D01552342F45038D4
:1004400011F4E0FF04C03196691F791F6BF050E88A
:10045000572711F45F9373C05F3F31F0660F000CB4
:1004600057956795752F08955F9300200AF073C024
:100470006CC050E8192E1522880F991F9527550F2B
:10048000879550E8072E0522660F771F7527550FB1
:1004900067950895689401C0E8945F93F2DF70381F
:1004A00018F07F3F08F44BC056E1571BAAF4519552
:1004B00058300EF4593030F0EFEFFFEF6FEF7FE779
:1004C00077F91AC077275523B9F0EE0FFF1F661F83
:1004D000771F5A95D1F710C07727583028F0EF2FA3
:1004E000F62F672F5850F9CF552331F07695679541
:1004F000F795E7955A95D1F700200AF47CD05F91E3
:100500000895689401C0E894309760407040B1F05D
:10051000002426F0772312F400946DD0172E7EE18C
:10052000112032F07A95EE0FFF1F661F111CF9CFD4
:10053000EF2FF62F612D5F938ADF5F910895EE27ED
:10054000FF27662777275F910895EFEFFFEF6FE7AB
:100550007FEF5F910895EFEFFFEF6FE77FE75F9128
:1005600008955F9386DF703821F411200AF4EDCFEF
:10057000F2CF903809F4E3CF01240894970B1BF4D1
:10058000D4F30020F3CF792F1F932F933F934F93F2
:1005900011241127222733274427552790E2AE172D
:1005A000BF078607410730F0AE1BBF0B860B410B20
:1005B000089401C08894551F221F331F111CAA1FC5
:1005C000BB1F881F441F9A9551F7F901612D4F9168
:1005D0003F912F911F91662332F0550FEE1FFF1FA1
:1005E000661F7A9543F229DF5F910895EA0FFB1F9A
:1005F000681F791F0895F09560957095E195FF4FFC
:100600006F4F7F4F08956F2F660F660B762F0895FB
:00000001FF
