:080000000C9430000C94000088
:100008000C9400000C9400000C9400000C94000068
:100018000C9400000C9400000C9400000C945D00FB
:100028000C9400000C9400000C9400000C94000048
:100038000C9400000C9400000C9400000C94000038
:100048000C9400000C9400000C940000FFFF0000CA
:100058000400040054000000F894EE27ECBBF1E023
:10006800FBBFEBBFE5BF8DE0A2E0BB27ED938A9510
:10007800E9F780E094E0A0E6ED930197E9F7E8E579
:10008800F0E085919591009761F0A591B591059063
:100098001590BF01F00105900D920197E1F7FB0162
:1000A800F0CFEFE5EDBFE4E0EEBFC0E6D1E00C94A1
:1000B800B7000A92AA93BA93EA93FA93EFB7EA932E
:1000C800EBE8E2BFA0E6B1E0ED91FD913196FE9339
:1000D800EE93A0916001B0916101D297E1F5A89BE0
:1000E80002C0A89801C0A89A062C072879F1E1E077
:1000F800F0E0E615F70529F4E7E0F0E04E165F06B4
:100108000CF404C0EFEFFFEF3F010CC0EFEFFFEF7F
:10011800E615F70521F40024401450040CF002C041
:1001280066247724460C571CE8E0F0E04E165F067C
:1001380024F40024401450040CF406C0E42DA1E07B
:10014800B0E00E94CB0001C0E0E0E8BBE0E0E09353
:100158006001E0936101E991EFBFF991E991B991EB
:10016800A99109901895E0E0EABBEFEFE7BBE1E061
:10017800E4BBE5E0E3BFEBE8E2BFE1E0E9BF789488
:10018800C89B03C0E1E0F0E03F01FACFFFCFEE23C8
:100198000E2EFD0121F0EE0FFF1F0A94E1F70895DE
:00000001FF
